:020000040800F2
:100000000000012089260008671800086F18000802
:10001000771800087F180008871800080000000003
:100020000000000000000000000000008F18000821
:100030009B18000800000000A7180008B31800086B
:10004000D9260008D9260008C1180008D9260008BA
:10005000D9260008D9260008D9260008D926000884
:10006000D9260008D9260008D9260008D518000886
:10007000D9260008D9260008D9260008D926000864
:10008000D9260008D9260008D9260008D926000854
:1000900000000000D9260008E9180008D926000849
:1000A000D9260008D9260008D9260008D926000834
:1000B000D9260008D9260008D9260008D926000824
:1000C000D9260008D9260008D9260008D926000814
:1000D000F9180008D9260008D9260008D9260008F2
:1000E000D9260008D92600080D190008D9260008CD
:1000F000D92600080000000000000000D9260008F2
:10010000D9260008D926000821190008D926000898
:10011000D9260008D9260008D9260008D9260008C3
:10012000D9260008D9260008D9260008D9260008B3
:08013000D9260008D9260008B9
:1001380010B5054C237833B9044B13B10448AFF319
:1001480000800123237010BD400100200000000042
:10015800C0B0010808B5034B1BB103490348AFF30E
:10016800008008BD0000000044010020C0B0010864
:10017800034613F8012B002AFBD1181A01387047DF
:1001880081F0004102E000BF83F0004330B54FEA40
:1001980041044FEA430594EA050F08BF90EA020FAD
:1001A8001FBF54EA000C55EA020C7FEA645C7FEA40
:1001B800655C00F0E2804FEA5454D4EB5555B8BF63
:1001C8006D420CDD2C4480EA020281EA030382EAD4
:1001D800000083EA010180EA020281EA0303362D66
:1001E80088BF30BD11F0004F4FEA01314FF4801C39
:1001F8004CEA113102D0404261EB410113F0004F4B
:100208004FEA03334CEA133302D0524263EB430301
:1002180094EA050F00F0A780A4F10104D5F1200E9F
:100228000DDB02FA0EFC22FA05F2801841F10001FA
:1002380003FA0EF2801843FA05F359410EE0A5F1CE
:1002480020050EF1200E012A03FA0EFC28BF4CF0FF
:10025800020C43FA05F3C01851EBE37101F00045B5
:1002680007D54FF0000EDCF1000C7EEB00006EEBC2
:100278000101B1F5801F1BD3B1F5001F0CD349084C
:100288005FEA30004FEA3C0C04F101044FEA4452A3
:1002980012F5800F80F09A80BCF1004F08BF5FEA2A
:1002A800500C50F1000041EB045141EA050130BD0A
:1002B8005FEA4C0C404141EB0101013C28BFB1F51C
:1002C800801FE9D291F0000F04BF01460020B1FA67
:1002D80081F308BF2033A3F10B03B3F120020CDA3A
:1002E8000C3208DD02F1140CC2F10C0201FA0CF018
:1002F80021FA02F10CE002F11402D8BFC2F1200C7D
:1003080001FA02F120FA0CFCDCBF41EA0C01904032
:10031800E41AA2BF01EB0451294330BD6FEA04047B
:100328001F3C1CDA0C340EDC04F11404C4F1200266
:1003380020FA04F001FA02F340EA030021FA04F378
:1003480045EA030130BDC4F10C04C4F1200220FACF
:1003580002F001FA04F340EA0300294630BD21FA0D
:1003680004F0294630BD94F0000F83F4801306BFD3
:1003780081F480110134013D4EE77FEA645C18BFC7
:100388007FEA655C29D094EA050F08BF90EA020F5E
:1003980005D054EA000C04BF1946104630BD91EA56
:1003A800030F1EBF0021002030BD5FEA545C05D159
:1003B8004000494128BF41F0004130BD14F5800498
:1003C8003CBF01F5801130BD01F0004545F0FE410C
:1003D80041F470014FF0000030BD7FEA645C1ABF41
:1003E800194610467FEA655C1CBF0B46024650EA78
:1003F800013406BF52EA033591EA030F41F40021A4
:1004080030BD00BF90F0000F04BF0021704730B529
:100418004FF4806404F132044FF000054FF00001FE
:1004280050E700BF90F0000F04BF0021704730B5BF
:100438004FF4806404F1320410F0004548BF404294
:100448004FF000013EE700BF42004FEAE2014FEAE9
:1004580031014FEA02701FBF12F07F4393F07F4FC4
:1004680081F06051704732F07F4208BF704793F0C7
:100478007F4F04BF41F40021704730B54FF46074DA
:1004880001F0004521F000411CE700BF50EA0102DD
:1004980008BF704730B54FF000050AE050EA010286
:1004A80008BF704730B511F0004502D5404261EBF6
:1004B80041014FF4806404F132045FEA915C3FF437
:1004C800D8AE4FF003025FEADC0C18BF03325FEAD4
:1004D800DC0C18BF033202EBDC02C2F1200300FA85
:1004E80003FC20FA02F001FA03FE40EA0E0021FAAA
:1004F80002F11444BDE600BF4FF0FF3C06E000BF28
:100508004FF0010C02E000BF4FF0010C4DF804CD94
:100518004FEA410C7FEA6C5C4FEA430C18BF7FEA54
:100528006C5C1BD001B050EA410C0CBF52EA430C82
:1005380091EA030F02BF90EA020F0020704710F102
:10054800000F91EA030F58BF994208BF90422CBF91
:10055800D8176FEAE37040F0010070474FEA410C8A
:100568007FEA6C5C02D150EA013C07D14FEA430CA8
:100578007FEA6C5CD6D152EA033CD3D05DF8040B19
:10058800704700BF8446104662468C46194663464B
:1005980000E000BF01B5FFF7B7FF002848BF10F122
:1005A800000F01BD4DF808EDFFF7F4FF0CBF012067
:1005B80000205DF808FB00BF4DF808EDFFF7EAFFE3
:1005C80034BF012000205DF808FB00BF4DF808ED9E
:1005D800FFF7E0FF94BF012000205DF808FB00BF93
:1005E8004DF808EDFFF7CEFF94BF012000205DF81D
:1005F80008FB00BF4DF808EDFFF7C4FF34BF01202A
:1006080000205DF808FB00BF4FEA410212F5001216
:1006180015D211D56FF47873B3EB625212D94FEA41
:10062800C12343F0004343EA505311F0004F23FA2B
:1006380002F018BF404270474FF00000704750EA80
:10064800013005D111F0004008BF6FF0004070473D
:100658004FF00000704700BF80F0004002E000BF8C
:1006680081F0004142001FBF5FEA410392EA030F95
:100678007FEA226C7FEA236C6AD04FEA1262D2EBDF
:100688001363C1BFD218414048404140B8BF5B42E4
:10069800192B88BF704710F0004F40F4000020F07D
:1006A8007F4018BF404211F0004F41F4000121F093
:1006B8007F4118BF494292EA030F3FD0A2F10102DD
:1006C80041FA03FC10EB0C00C3F1200301FA03F11B
:1006D80000F0004302D5494260EB4000B0F5000F3E
:1006E80013D3B0F1807F06D340084FEA310102F1FD
:1006F8000102FE2A51D2B1F1004F40EBC25008BFAF
:1007080020F0010040EA03007047490040EB000078
:10071800013A28BFB0F5000FEDD2B0FA80FCACF179
:10072800080CB2EB0C0200FA0CF0AABF00EBC250A6
:1007380052421843BCBFD0401843704792F0000F94
:1007480081F4000106BF80F400000132013BB5E7E7
:100758004FEA41037FEA226C18BF7FEA236C21D05D
:1007680092EA030F04D092F0000F08BF08467047C2
:1007780090EA010F1CBF0020704712F07F4F04D190
:10078800400028BF40F00040704712F100723CBFA3
:1007980000F50000704700F0004343F0FE4040F4CD
:1007A800000070477FEA226216BF08467FEA23638B
:1007B8000146420206BF5FEA412390EA010F40F476
:1007C800800070474FF0000304E000BF10F00043C2
:1007D80048BF40425FEA000C08BF704743F09643A9
:1007E80001464FF000001CE050EA010208BF7047C4
:1007F8004FF000030AE000BF50EA010208BF70474B
:1008080011F0004302D5404261EB41015FEA010C5F
:1008180002BF84460146002043F0B64308BFA3F157
:100828008053A3F50003BCFA8CF2083AA3EBC25339
:1008380010DB01FA02FC634400FA02FCC2F1200258
:10084800BCF1004F20FA02F243EB020008BF20F08F
:100858000100704702F1200201FA02FCC2F12002F5
:1008680050EA4C0021FA02F243EB020008BF20EAEA
:10087800DC7070474FEA4002B2F1FE4F0FD34FF0E1
:100888009E03B3EB12620DD94FEA002343F00043F5
:1008980010F0004F23FA02F018BF404270474FF0A3
:1008A8000000704712F1610F01D1420205D110F02A
:1008B800004008BF6FF0004070474FF000007047DD
:1008C80053B94AB9002908BF00281CBF4FF0FF31AF
:1008D8004FF0FF3000F088B9ADF1080C6DE904CE97
:1008E80000F006F8DDF804E0DDE9022304B0704703
:1008F8002DE9F047089D8E4604468846002B4AD1CC
:100908008A42174662D9B2FA82F64EB1C6F120037E
:1009180001FA06F820FA03F3B74043EA0808B4409E
:100928004FEA174E1FFA87FCB8FBFEF1230C0EFBAB
:10093800118843EA084301FB0CF29A4209D9FB18D3
:1009480001F1FF3080F0EA809A4240F2E7800239F4
:100958003B449A1AA3B2B2FBFEF00EFB102243EA04
:10096800024300FB0CFC9C4509D9FB1800F1FF323F
:1009780080F0D6809C4540F2D3803B44023840EA60
:100988000140A3EB0C0300211DB1F3400022C5E98F
:100998000032BDE8F0878B4205D90DB1C5E90001E9
:1009A80000210846F5E7B3FA83F1002946D17345DB
:1009B80002D3824200F20581841A6EEB0302012001
:1009C8009046002DE5D0C5E90048E2E7002A00F08E
:1009D8009080B2FA82F6002E40F0A4808A1A030CA6
:1009E8004FEA174E80B2BCB20121B2FBFEFC0EFBEF
:1009F8001C2243EA024304FB0CF29A4207D9FB1873
:100A08000CF1FF3802D29A4200F2E080C4469B1AE9
:100A1800B3FBFEF20EFB123340EA034302FB04F47D
:100A28009C4207D9FB1802F1FF3002D29C4200F227
:100A3800CA8002461B1B42EA0C40A5E7C1F120060A
:100A48008B4022FA06F71F430EFA01F420FA06F348
:100A58002EFA06FE4FEA1749234300FA01F81FFA57
:100A680087FCBEFBF9F01C0C09FB10EE44EA0E44AF
:100A780000FB0CFEA64502FA01F209D93C1900F167
:100A8800FF3A80F09C80A64540F2998002383C44A9
:100A9800A4EB0E041FFA83FEB4FBF9F309FB13441D
:100AA8004EEA044403FB0CFCA44508D93C1903F1A5
:100AB800FF3E80F08280A4457FD9023B3C4443EA54
:100AC8000040A4EB0C04A0FB02EC64457346E1462D
:100AD80062D35FD05DB1B8EB030264EB090404FA9A
:100AE80006F622FA01F31E43CC40C5E90064002152
:100AF8004FE7B1FBF2FC010C41EA0E4180B240EA3B
:100B080001423B4638463C46B846BE462026B1FB25
:100B1800F7F1A2EB080241EA0C4166E7014618E743
:100B280010462CE7C6F120022EFA02F3B740B14076
:100B380020FA02F24FEA174E0A43B3FBFEF8BCB2A2
:100B48000EFB1833110C41EA034108FB04F9B040CD
:100B580089454FEA104380B23ED9791808F1FF3C25
:100B680001D289451FD8A1EB0901B1FBFEF909FBA8
:100B780004F80EFB191192B242EA0142424529D209
:100B8800BA1809F1FF31C4D24245C2D2A9F1020113
:100B98003A44BEE7F0459DD2BEEB02036CEB070C6E
:100BA8000138E14696E7A7EB09094944A8F1020C88
:100BB800B1FBFEF909FB04F8DBE773467FE7504613
:100BC80066E70846FDE63B44023A33E7ACF1020C1F
:100BD8003B441CE749469CE7A1EB0901C446B1FB2D
:100BE800FEF909FB04F8C4E7704700BF80B485B07C
:100BF80000AF78604FF0B0431A6E4FF0B0417B6899
:100C080013430B664FF0B0431A6E7B681340FB60CA
:100C1800FB6800BF1437BD4680BC704780B483B002
:100C280000AF78604FF0B0431A6E7B68DB434FF03B
:100C3800B04113400B6600BF0C37BD4680BC7047FF
:100C480080B500AF234B244A1A60224B4FF08042F4
:100C58005A60204B00229A601E4B0022DA601D4B1E
:100C680000221A611B4B04225A611A4B00221A7681
:100C7800184B00225A76174B00229A76154B012200
:100C8800DA61144B002283F82020124B00225A62AA
:100C9800104B00229A620F4B002283F82C200D4B38
:100CA80000221A630B4B00225A630A4B00229A63F4
:100CB800084B002283F83C20064B0022DA640548E2
:100CC80001F06CFF0346002B01D000F0C9FC00BF07
:100CD80080BD00BF5C0100200024014080B582B0C7
:100CE80000AF78607B681B68054A934203D14FF4D4
:100CF8000070FFF77BFF00BF0837BD4680BD00BF0F
:100D08000024014080B582B000AF78607B681B6822
:100D1800054A934203D14FF40070FFF77FFF00BFED
:100D28000837BD4680BD00BF0024014080B400AF35
:100D3800034B044A1A6000BFBD4680BC704700BF21
:100D48005C0100200024014080B582B000AF002380
:100D58003B8000237B6000F069F803467B802D48C8
:100D680000F098F878602C4B1A882C4B1B889A4214
:100D780026D0294B1A88294B1B889A421CD07B887D
:100D88007A6802FB03F39B08254AA2FB03235B094D
:100D98001A46224B1B88D31A642203FB02F21E4B0D
:100DA8001B8819461D4B1B88CB1A92FBF3F39BB289
:100DB8001E339BB21BB201E047F6FF733B801DE078
:100DC8007B887A6803FB02F2164BA3FB0213D21A44
:100DD80052081344DB0A4FF47A7202FB03F3A3F5BB
:100DE8003923A3F50C63104A82FB03129212DB1716
:100DF800D31A9BB21E339BB21BB23B803B881BB2FB
:100E08001B021BB23B803B881BB218460837BD4605
:100E180080BD00BF001000B0C875FF1FA875FF1F78
:100E28009F00EE0901011000AD8BDB6880B582B030
:100E380000AF0023FB8000233B60134800F02AF832
:100E480038603B68002B02D10023FB8016E00F4B73
:100E58001B884FF6FF7293420BD00C4B1B881A4627
:100E680040F6E44303FB02F23B68B2FBF3F3FB807A
:100E780004E0074A3B68B2FBF3F3FB80FB881846A3
:100E88000837BD4680BD00BF002000B4AA75FF1F0B
:100E9800D8084C0080B586B000AF786000237B612D
:100EA80007F1080300221A605A609A60FFF7C8FE2B
:100EB8001A4802F092FC0346002B01D000F0D0FB48
:100EC8007B68BB600023FB6000233B6107F10803DC
:100ED8001946124802F09EF90346002B01D000F093
:100EE800BFFB0E4802F07AF80346002B01D000F051
:100EF800B7FB4FF0FF31094802F0E8F8074802F065
:100F0800B3F8064802F079F97861044801F0DAFF8D
:100F18007B6918461837BD4680BD00BF5C010020BC
:100F280080B485B000AF78604FF0B0439A6C4FF052
:100F3800B0417B6813438B644FF0B0439A6C7B6875
:100F48001340FB60FB6800BF1437BD4680BC704788
:100F580080B500AF0420FFF7E3FF0120FFF7E0FFB3
:100F6800002200210B2002F000FE0B2002F017FEE9
:100F780000BF80BD80B586B000AFF860B9607A6008
:100F8800FF23FB75FB68B3F1006F11D30B4B1B6894
:100F98009A020B4B134003F10063013BFA6893423A
:100FA80006D37A68B968F86800F05AF80346FB7502
:100FB80097F9173018461837BD4680BDE075FF1FF2
:100FC80000FCFF0380B586B000AFF860B9607A60B6
:100FD800FF23FB75BB68B3F1006F11D30B4B1B6884
:100FE8009A020B4B134003F10063013BBA6893422A
:100FF80006D37A68B968F86800F03AF90346FB75D1
:1010080097F9173018461837BD4680BDE075FF1FA1
:1010180000FCFF0380B584B000AF78603960FF231F
:10102800FB737B68B3F1006F10D30B4B1B689A02FC
:101038000A4B134003F10063013B7A68934205D3DE
:101048003968786800F032F90346FB7397F90F3076
:1010580018461037BD4680BDE075FF1F00FCFF0332
:1010680080B590B000AFF860B9607A60002387F867
:101078003F30FB68BB63BB687B637B683B63FB6893
:10108800002B0CD0BB68002B09D07B6803F007034A
:10109800002B04D1FB6803F00703002B02D06FF08C
:1010A8000503DAE000F092F9034687F83F3097F934
:1010B8003F30002B40F0CF8003F0C8F90346002BE7
:1010C80040F0C680BB6B03F17842664B1B689902FF
:1010D800654B0B40B2FBF3F101FB03F3D31ADB0AB8
:1010E800BB61BA6B7B68134403F17843013B5D4AEB
:1010F800126891025C4A0A40B3FBF2F101FB02F26A
:101108009B1ADA0ABB69D31A01337B617B69012B0D
:1011180005D9BB6BC3F30A03C3F500633B63BB6923
:10112800FB6289E0FB6A03F58033DB023B61396BC4
:10113800F86800F025F90346002B31D04B4B1B68AB
:10114800002B03D1FA2387F83F307EE0474B1B681A
:1011580039694FF40062184600F08AF8434B1A6860
:10116800BB6BC3F30A031344796B3A6B92B218460C
:1011780018F032FC3B694FF40061184600F096F80D
:101188000346002B03D0FE2387F83F305DE03B6920
:101198007B62364B1B683B624FF40063FB6105E0E2
:1011A800BB6B7B627B6B3B623B6BFB610023BB626F
:1011B80026E03A6ABB6A1344D3E90023796A01201E
:1011C80003F000F90346002B13D17B6AD3E9000131
:1011D8003A6ABB6A1344D3E90023994208BF904294
:1011E80003D0FC2387F83F300EE07B6A08337B622C
:1011F80003E0FC2387F83F3006E0BB6A0833BB6294
:10120800BA6AFB699A42D4D397F93F30002B1BD1B5
:10121800BA6B3B6B1344BB637A6B3B6B13447B63C6
:101228007A683B6BD31AB3F5006F28BF4FF400639D
:101238003B63FB6A0133FB62BA697B691344FA6A50
:101248009A42FFF46FAF00E000BF03F021F902E01B
:10125800FB2387F83F3097F93F3018464037BD46A3
:1012680080BD00BFE075FF1F00FCFF03C001002028
:1012780080B586B000AFF860B9607A600023FB756E
:10128800FB68002B02D0BB68002B02D16FF005036E
:1012980008E07B689BB21A46B968F86818F09CFBAE
:1012A80097F9173018461837BD4680BD80B588B005
:1012B80000AF786039600023FB770123BB770023F8
:1012C8007B617B68BB617B68002B02D16FF00503F3
:1012D8004EE000F07BF80346FB7797F91F30002BB0
:1012E80044D103F0B3F80346002B3DD10223BB6081
:1012F800BB6903F17842204B1B6899021F4B0B40D6
:10130800B2FBF3F101FB03F3D31ADB0AFB60BA6902
:101318003B68134403F17843013B174A1268910272
:10132800164A0A40B3FBF2F101FB02F29B1ADA0AF1
:10133800FB68D31A01333B6107F1140207F1080374
:101348001146184603F084F90346BB77BB7F002B90
:1013580007D0BB7F022B01D1012301E06FF001030D
:10136800FB7703F095F801E0FB23FB7797F91F3033
:1013780018462037BD4680BDE075FF1F00FCFF03FF
:1013880080B485B000AF786039600023FB6000232B
:10139800BB6011E07B68D3E90023B3F1FF3F08BFCE
:1013A800B2F1FF3F02D00123FB6009E07B680833FC
:1013B8007B60BB680833BB60BA683B689A42E9D374
:1013C800FB6818461437BD4680BC704780B582B0AC
:1013D80000AFFB23FB7103F039F80346002B10D153
:1013E8000B4B9B690A4A43F040439361084B4CF20C
:1013F800FA321A6103F04CF80346002B01D100239E
:10140800FB7197F9073018460837BD4680BD00BF05
:101418000040005880B485B000AF78604FF0B0430A
:10142800DA6C4FF0B0417B681343CB644FF0B043A4
:10143800DA6C7B681340FB60FB6800BF1437BD465D
:1014480080BC704780B586B000AF3B1D00221A6093
:101458005A609A60DA601A610220FFF7DBFF012008
:10146800FFF7D8FF8020FFF7D5FF0420FFF7D2FF52
:1014780000224FF49071424803F0ECFB00224FF435
:1014880081714FF0904003F0E5FB00224FF40051CA
:101498003C4803F0DFFB41F21D037B600323BB6084
:1014A8000023FB603B1D1946354803F0A5F94FF4AE
:1014B80090737B600123BB600023FB6000233B61CA
:1014C8003B1D19462E4803F097F94FF67D637B6064
:1014D8000323BB600023FB603B1D19464FF090407F
:1014E80003F08AF94FF481737B600123BB6000230A
:1014F800FB6000233B613B1D19464FF0904003F011
:101508007BF980237B604FF40413BB600123FB60ED
:101518003B1D19464FF0904003F06EF908237B609D
:101528000323BB600023FB603B1D1946164803F0EC
:1015380063F94FF400537B600123BB600023FB6019
:1015480000233B613B1D19460E4803F055F94FF443
:1015580000437B600323BB600023FB603B1D1946EF
:10156800084803F049F900220021162002F0FDFA8C
:10157800162002F014FB00BF1837BD4680BD00BF1F
:101588000004004800080048001C004880B500AF6F
:1015980001F0CAF800F010F8FFF754FFFFF7D8FC85
:1015A800FFF74EFB00F08AF800F074FE08F0A6F989
:1015B80008F0ACF9FCE7000080B59AB000AF07F17D
:1015C800200348220021184619F0C8FC07F1080337
:1015D80000221A605A609A60DA601A615A611F4BD9
:1015E8001B6823F4C0631D4A43F4007313601B4B4C
:1015F8001B6803F4C0637B607B6824233B628523FC
:10160800FB6201233B6400237B64B023BB6400239B
:10161800FB6407F12003184603F0A2FE0346002BE3
:1016280001D000F01DF84F23BB600023FB600023AE
:101638003B6100237B610023BB610023FB6107F151
:1016480008030221184604F00DFA0346002B01D0C6
:1016580000F006F800BF6837BD4680BD000400589A
:1016680080B400AF72B600BF00BFFDE780B400AF22
:101678004FF0B043D3F890304FF0B04243F40043FA
:10168800C2F8903000BFBD4680BC704780B485B0BA
:1016980000AF78604FF0B0439A6D4FF0B0417B686F
:1016A80013438B654FF0B0439A6D7B681340FB6022
:1016B800FB6800BF1437BD4680BC704780B58CB04E
:1016C80000AF3B1D2C220021184619F047FC234B84
:1016D800234A1A60214B1F229A60204B00221A616C
:1016E8001E4B00225A611D4B00229A611B4B4FF082
:1016F8008042DA61194B00221A62184B4FF480724B
:101708005A62164804F06AFE0346002B01D0FFF720
:10171800A7FF124805F060F90346002B01D0FFF738
:101728009FFF4FF000433B620023BB600023BB6177
:101738004FF00053FB614FF48073FB623B1D0022A6
:101748001946064804F0CCFE0346002B01D0FFF7EB
:1017580087FF00BF3037BD4680BD00BFC4010020F1
:101768000028004080B590B000AF786007F108030A
:1017780038220021184619F0F1FB7B681B68164ACD
:10178800934225D14FF48033BB604FF48073FB63E1
:1017980007F10803184604F007FD0346002B01D0A3
:1017A800FFF75EFFFFF762FF4FF48060FFF76EFF01
:1017B80000220021022002F0D8F9022002F0EFF9FD
:1017C800002200212A2002F0D0F92A2002F0E7F9AD
:1017D80000BF4037BD4680BD0028004080B400AF40
:1017E800034B0122C3F8882000BFBD4680BC704768
:1017F8000004005880B400AF00BFBD4680BC7047ED
:1018080080B400AF00BFBD4680BC704780B500AF54
:1018180000F0F6FFFFF7E2FF012003F0E7FA00BF50
:1018280080BD80B500AF00F0F9FF00F0D3FE00BF27
:1018380080BD80B500AF00F0E3FF0121002003F078
:1018480051FA00BF80BD80B500AF00F0E7FF00BFD0
:1018580080BD80B400AF00BFBD4680BC704780B477
:1018680000AF00BFFDE780B400AF00BFFDE780B464
:1018780000AF00BFFDE780B400AF00BFFDE780B454
:1018880000AF00BFFDE780B400AF00BFBD4680BC1D
:10189800704780B400AF00BFBD4680BC704780B4BD
:1018A80000AF00BFBD4680BC704780B500AF00F0F8
:1018B80095FF00BF80BD000080B500AF024805F06D
:1018C800C7F800BF80BD00BFC401002080B500AFCD
:1018D800024802F007FC00BF80BD00BFA402002040
:1018E80080B500AF802003F0CDF900BF80BD0000B7
:1018F80080B500AF024805F005FF00BF80BD00BFFE
:101908001002002080B500AF024804F051FF00BF6C
:1019180080BD00BFC401002080B500AF024805F0BB
:1019280005FC00BF80BD00BFFC01002080B485B06D
:1019380000AF78604FF0B0435A6E4FF0B0417B680B
:1019480013434B664FF0B0435A6E7B681340FB60FD
:10195800FB6800BF1437BD4680BC704780B500AF38
:10196800064B10221A60054805F05EF90346002B65
:1019780001D0FFF775FE00BF80BD00BFFC0100204D
:1019880080B582B000AF78600120FFF7CFFF00225A
:101998000021322002F0E9F8322002F000F900BFFD
:1019A8000837BD4680BD80B483B000AF78604FF083
:1019B800B0439B6823F400424FF0B0417B68134367
:1019C8008B6000BF0C37BD4680BC704780B400AF49
:1019D800024B1B681846BD4680BC70478075FF1FC8
:1019E80080B400AF034B1B68DBB21846BD4680BC11
:1019F800704700BF8475FF1F80B400AF034B1B689E
:101A08001B0A1846BD4680BC704700BF8475FF1F7F
:101A180080B500AF0020FFF7C6FF18F069FD0E4B38
:101A280001221A7000F06AF918F0F2FF0B4819F059
:101A38009DF80B4B4FF400421A61022019F0A4F8EC
:101A4800FFF774F900F096F917F020FF0121012043
:101A580017F05CFF00BF80BD08020020391C000899
:101A68000040005880B500AF17F080FF00BF80BD70
:101A780080B582B000AF0023FB71FFF7D7F90346AA
:101A8800BB80BB8840F6B832934202D9FE23FB7173
:101A980014E0BB88B3F5E16F02D20023FB710DE0BF
:101AA800BB88A3F5E1631A461346DB019B1A5B006A
:101AB8001A46054BA3FB0223DB09FB71FB79184689
:101AC8000837BD4680BD00BFB5814E1B80B588B0C4
:101AD80000AF0023FB833B1D184600F019F9BB68D3
:101AE8001846FEF7C7FE0346FB83B7F91E301846B3
:101AF8002037BD4680BD90B587B000AF7860002321
:101B08007B61FFF763FF78617B69B3F1FF3F38D1F1
:101B180000F092FE044600F0A3FE034623443B6116
:101B280000F094FEF8603B691A0E7B680733D2B266
:101B38001A703B691A0C7B680633D2B21A703B697B
:101B48001A0A7B680533D2B21A707B6804333A6983
:101B5800D2B21A70FB681A0E7B680333D2B21A70BD
:101B6800FB681A0C7B680233D2B21A70FB681A0A37
:101B78007B680133D2B21A70FB68DAB27B681A70DC
:101B880031E07B6807337A69D2B21A707B691A0A26
:101B98007B680633D2B21A707B691A0C7B680533EE
:101BA800D2B21A707B691A0E7B680433D2B21A70EB
:101BB800FFF716FF78617B6803337A69D2B21A702F
:101BC800FFF71AFF78617B6802337A69D2B21A701C
:101BD8007B691A0A7B680133D2B21A707B691B0CC5
:101BE800DAB27B681A7000BF1C37BD4690BD90B54D
:101BF80083B000AF7860FFF7E9FE02467B681A60A1
:101C08007B681B68B3F1FF3F0DD100F015FE044659
:101C180000F01CFE03465C4000F022FE034684EA06
:101C280003027B681A6000BF0C37BD4690BD0000F8
:101C380080B586B002AF7860396007F108031846AE
:101C480017F0A4FFBB68B7F90C200092074A1021CF
:101C5800786800F01DF87868FEF78AFA03469AB2A9
:101C68003B681A8000BF1037BD4680BDD8B0010858
:101C780080B500AF0121022017F018FE00BF80BD1B
:101C880080B500AF0021022017F010FE00BF80BD14
:101C98000CB480B584B000AF7860396007F11C03DC
:101CA800FB603968FB68BA69786818F041F900BFC9
:101CB8001037BD46BDE8804002B0704780B582B09D
:101CC80000AF00237B60064B1B78002B02D000F08E
:101CD8001DF978607B6818460837BD4680BD00BF8F
:101CE8000802002080B582B000AF78607B68184693
:101CF80000F093F900BF0837BD4680BD80B500AF3E
:101D080000F0B8FD00F0BCFD00F0C0FD00BF80BDD4
:101D180080B586B000AF7860114B7B61114B3B6199
:101D2800114BFB60FFF710F803461B121BB2184655
:101D3800FEF74CFD03463B617B687A699A607B68D5
:101D48003A695A607B68FA681A607B68074ADA6001
:101D58007B68074A1A61002318461837BD4680BDBC
:101D6800000048420000904100007A440D093E00FE
:101D7800AB03050080B483B000AF00237B607B68B1
:101D880018460C37BD4680BC704780B400AF00BF12
:101D9800BD4680BC704780B483B000AF78607B6874
:101DA8009B6818460C37BD4680BC704780B582B02A
:101DB80000AF0023FB71144B1B7883F00103DBB2E7
:101DC800002B1BD0114B4FF0FF321A63FFF776FC44
:101DD80000F056F84FF480710C4804F08DFC0B4B62
:101DE8004FF0FF321A63094804F0C4FD002000F0E8
:101DF800D3F900F05FF8044B01221A70FB791846FA
:101E08000837BD4680BD00BF09020020C40100207C
:101E180080B58EB000AF7860002387F8373007F1BF
:101E280008032C220021184619F098F800F028F829
:101E3800114B1B687A6813447B6000237B627B68C4
:101E4800DB43FB600023FB614FF000533B624FF420
:101E580080733B6307F1080301221946074804F021
:101E68003FFB0346002B01D0FFF7FAFB97F837300A
:101E780018463837BD4680BD0C020020C40100203A
:101E880080B582B000AF0023FB71084B0122DA65F0
:101E98004FF48071064804F02FFC054B4FF0FF32D9
:101EA8001A63FB7918460837BD4680BD00280040F4
:101EB800C401002080B500AF00F08EF90346034A44
:101EC8001360024B1B68184680BD00BF0C0200203F
:101ED80080B400AF024B1B681846BD4680BC7047F3
:101EE8000C02002080B582B000AF00237B6000F0B8
:101EF80073F90246044B1B68D31A7B607B6818464B
:101F08000837BD4680BD00BF0C02002080B582B0F6
:101F180000AF00237B60064B1B78002B02D000F03B
:101F28005BF978607B6818460837BD4680BD00BFFE
:101F38000902002080B483B000AF00237B60032334
:101F48007B607B6818460C37BD4680BC7047B0B5CF
:101F580084B000AF78600021F960796800200A46F3
:101F68000346950D94024FF47A724FF00003204611
:101F78002946FEF7A5FC02460B461346FB60FB68A4
:101F880018461037BD46B0BD2DE9B00F85B000AF7B
:101F980078600021F960796800200C4605462046E3
:101FA80029464FF0000A4FF0000B4FEA411B4BEA5D
:101FB800D06B4FEA401A50465946021B61EB0503A5
:101FC8004FF000004FF00001990041EA9271900033
:101FD80002460B4612EB040843EB05094FF00002DA
:101FE8004FF000034FEAC90343EA58734FEAC802A7
:101FF80090469946404649464FF000024FF000038C
:10200800820A42EA81528B0A1346FB60FB68184633
:102018001437BD46BDE8B00F704780B584B000AF37
:1020280078607868FFF793FFF86000F0D5F8B8603B
:1020380000E000BF00F0D0F80246BB68D31AFA6887
:102048009A42F6D800BF00BF1037BD4680BD80B5A4
:1020580082B000AF786018F099FB00BF0837BD4622
:1020680080BD80B584B000AF786000F0A5F8F86056
:10207800FB680133184600F08FF800BF1037BD46E3
:1020880080BD2DE9B04F8CB000AF78610023FB62B2
:1020980000F0A2F8B86200F08FF878627B6A00223C
:1020A800BB60FA604FF000024FF00003B9680B0004
:1020B8000022B96A00200C46054612EB040843EBDF
:1020C8000509C7E90689D7E906014FF000024FF074
:1020D8000003820A42EA81528B0A1346FB62BB69FB
:1020E80000223B607A603B68C3F3090A4FF0000B9B
:1020F800C7E906ABBB691846FFF746FF03469AB225
:102108007B691A80FB6A18463037BD46BDE8B08F38
:1021180080B582B000AF78607A680021034804F087
:10212800BBFC00BF0837BD4680BD00BFC40100200E
:1021380080B582B000AF78607A680121034804F066
:10214800ABFC00BF0837BD4680BD00BFC4010020FE
:1021580080B582B000AF00237B600021044804F002
:10216800B3FC78607B6818460837BD4680BD00BF61
:10217800C401002080B582B000AF00237B6001213C
:10218800044804F0A1FC78607B6818460837BD460F
:1021980080BD00BFC401002080B582B000AF786068
:1021A8007A680221034804F077FC00BF0837BD466F
:1021B80080BD00BFC401002080B582B000AF0221FD
:1021C800044804F081FC78607B6818460837BD46EF
:1021D80080BD00BFC401002080B582B000AF0B48AD
:1021E800FFF7D9FD786003E00848FFF7D4FD786071
:1021F8000648FFF7D0FD02467B689342F4D17B681E
:10220800DB4318460837BD4680BD00BF00280040A4
:1022180080B485B000AF78604FF0B043DA6C4FF00F
:10222800B0417B681343CB644FF0B043DA6C7B68F2
:102238001340FB60FB6800BF1437BD4680BC704785
:1022480080B485B000AF78604FF0B0431A6E4FF09D
:10225800B0417B6813430B664FF0B0431A6E7B683E
:102268001340FB60FB6800BF1437BD4680BC704755
:1022780080B483B000AF78604FF0B0431A6E7B68CB
:10228800DB434FF0B04113400B6600BF0C37BD462F
:1022980080BC704780B500AF224B234A1A60214B9F
:1022A8004FF4E1325A601F4B00229A601D4B002206
:1022B800DA601C4B00221A611A4B0C225A61194B26
:1022C80000229A61174B0022DA61164B00221A622B
:1022D800144B00225A62134B00229A62114805F0EF
:1022E800F4F80346002B01D0FFF7BAF900210D4896
:1022F80007F01AFA0346002B01D0FFF7B1F90021C5
:10230800084807F04FFA0346002B01D0FFF7A8F959
:10231800044807F0D1F90346002B01D0FFF7A0F9D4
:1023280000BF80BD100200200038014080B596B083
:1023380000AF786007F1440300221A605A609A607F
:10234800DA601A6107F10C0338220021184618F0E8
:1023580005FE7B681B682F4A934256D10123FB6018
:102368004FF440333B6107F10C03184603F01CFFA0
:102378000346002B01D0FFF773F94FF48040FFF7B5
:102388005FFF0220FFF744FFC0237B640223BB6486
:102398000123FB6400233B6507237B6507F14403A6
:1023A80019461D4802F028FA1C4B1D4A1A601B4B9F
:1023B80012225A60194B10229A60184B0022DA60D8
:1023C800164B80221A61154B00225A61134B0022CA
:1023D8009A61124B0022DA61104B00221A620F48F0
:1023E80001F006FC0346002B01D0FFF739F97B68A2
:1023F8000A4ADA67094A7B6893620022002124208E
:1024080001F0B3FB242001F0CAFB00BF5837BD46DA
:1024180080BD00BF0038014000040048A40200202D
:102428000800024080B582B000AF78607B681B6806
:102438000B4A93420FD14FF48040FFF719FFC02198
:10244800084802F039FB7B68DB6F184601F078FC1E
:10245800242001F0B2FB00BF0837BD4680BD00BF95
:10246800003801400004004880B483B000AF7860B1
:102478004FF0B0431A6C4FF0B0417B6813430B64C4
:1024880000BF0C37BD4680BC704780B483B000AF36
:1024980078604FF0B0431A6C7B68DB434FF0B04173
:1024A80013400B6400BF0C37BD4680BC704700006A
:1024B80080B483B000AF7860064BD3F8802005491C
:1024C8007B681343C1F8803000BF0C37BD4680BC21
:1024D800704700BF0008005880B582B000AF786030
:1024E800074A7B681360FEF733FDFFF7D3FE4FF012
:1024F8008060FFF7DDFF002318460837BD4680BD22
:102508000803002080B500AF4FF48040FFF7ACFF10
:102518004FF48040FFF7B9FF0448FFF783FF0F200F
:1025280001F04BFB0023184680BD00BF10020020BD
:1025380080B582B000AF78600B467B807B881A46F6
:102548007968044805F05EF8002318460837BD4648
:1025580080BD00BF1002002080B584B000AF786055
:10256800194A7B6813604FF40013BB6007F1080336
:1025780093E80600154807F012F800BF134B1B68D4
:10258800DB6903F48033B3F5803FF7D000BF0F4B0E
:102598001B68DB6903F48003B3F5800FF7D10B4B9D
:1025A8001B689A68094B1B6842F480029A600748C6
:1025B80007F050F801220649044804F0D7FF002329
:1025C80018461037BD4680BD0C03002010020020BD
:1025D8000403002080B500AF084804F076FF0346E6
:1025E800002B01D0FFF73CF8054801F001FB03463A
:1025F800002B01D0FFF734F800BF80BD1002002087
:10260800A402002080B582B000AF78607B681B68A8
:10261800054A934203D1054B1B680020984700BF29
:102628000837BD4680BD00BF0038014008030020C0
:1026380080B582B000AF78607B681B680D4A934212
:1026480013D10D4B1B68002B0AD07B68D3F8903050
:10265800002B05D1084B1B68002201210748984729
:1026680001220649786804F081FF00BF0837BD469B
:1026780080BD00BF003801400C0300200403002087
:102688000D488546FFF781FB0C480D490D4A00238C
:1026980002E0D458C4500433C4188C42F9D30A4A0F
:1026A8000A4C002301E013600432A242FBD318F065
:1026B8005DFCFEF76BFFFEE7000001200000002034
:1026C8004001002078BD010840010020B01B002017
:1026D800FEE7000080B400AF044B5B68034A23F0B8
:1026E8000103536000BFBD4680BC7047002004E072
:1026F80080B400AF044B5B68034A23F002035360C5
:1027080000BFBD4680BC7047002004E080B400AF25
:10271800044B5B68034A23F00403536000BFBD46C3
:1027280080BC7047002004E080B582B000AF002371
:10273800FB71032001F00EFA03F058FB0346094A27
:1027480013600F2000F010F80346002B02D001237D
:10275800FB7101E0FFF77DF8FB7918460837BD46A5
:1027680080BD00BF0000002080B584B000AF786055
:102778000023FB73174B1B78002B24D003F036FB88
:102788000246144B1B7819464FF47A73B3FBF1F3E6
:10279800B2FBF3F3184601F01EFA0346002B0FD1E3
:1027A8007B680F2B09D8002279684FF0FF3001F0C1
:1027B800DCF9094A7B68136007E00123FB7304E036
:1027C8000123FB7301E00123FB73FB7B18461037E1
:1027D800BD4680BD080000200400002080B400AF82
:1027E800054B1B781A46054B1B681344034A1360B4
:1027F80000BFBD4680BC70470800002010030020C1
:1028080080B400AF044B1B68034A23F00203136033
:1028180000BFBD4680BC704710E000E080B400AF48
:10282800044B1B68034A43F00203136000BFBD4614
:1028380080BC704710E000E080B400AF024B1B681A
:102848001846BD4680BC70479075FF1F80B400AF26
:10285800024B1B681846BD4680BC70479475FF1F25
:1028680080B400AF024B1B681846BD4680BC704759
:102878009875FF1F80B500AFFFF72CFF00BF80BD24
:1028880080B500AFFFF734FF00BF80BD80B500AF53
:10289800FFF73CFF00BF80BD80B483B000AF786015
:1028A80039607B681B6823F0E0723B681A437B68D9
:1028B8001A6000BF0C37BD4680BC704780B483B037
:1028C80000AF78607B681B6803F0E07318460C372C
:1028D800BD4680BC704780B485B000AFF860B96071
:1028E8007A60FB685A69BB6803F00403072101FAA0
:1028F80003F3DB431A40BB6803F00403796801FA69
:1029080003F31A43FB685A6100BF1437BD4680BC05
:10291800704780B483B000AF786039607B685A69CB
:102928003B6803F00403072101FA03F31A403B68EC
:1029380003F0040322FA03F318460C37BD4680BCA3
:10294800704780B483B000AF78607B68DB6803F4BD
:102958004063002B01D1012300E0002318460C3707
:10296800BD4680BC704780B485B000AFF860B960E0
:102978007A60FB689A6ABB6803F01F030F2101FAAB
:1029880003F3DB431A407B689B0E03F00F01BB681F
:1029980003F01F0301FA03F31A43FB689A6200BFAE
:1029A8001437BD4680BC704780B483B000AF7860F0
:1029B80039607B689A6A3B68C3F311031A437B68E2
:1029C8009A6200BF0C37BD4680BC704780B483B0A4
:1029D80000AF786039607B689A6A3B68C3F311037B
:1029E800DB431A407B689A6200BF0C37BD4680BC47
:1029F800704780B485B000AFF860B9607A60FB6852
:102A08005A69BB681B02DB431A40BB6819027B6822
:102A18000B4023F07C4323F0FF031A43FB685A6101
:102A280000BF1437BD4680BC704780B483B000AF88
:102A380078607B689B6823F0104323F0170343F00A
:102A480080527B689A6000BF0C37BD4680BC7047D7
:102A580080B483B000AF78607B689B6823F0104334
:102A680023F017037A68936000BF0C37BD4680BC1B
:102A7800704780B483B000AF78607B689B6803F0D0
:102A88008053B3F1805F01D1012300E00023184691
:102A98000C37BD4680BC704780B483B000AF786007
:102AA8007B689B6823F0004323F0170343F001027F
:102AB8007B689A6000BF0C37BD4680BC704780B405
:102AC80083B000AF78607B689B6823F0004323F0F5
:102AD800170343F002027B689A6000BF0C37BD46BB
:102AE80080BC704780B483B000AF78607B689B6817
:102AF80003F00103012B01D1012300E00023184654
:102B08000C37BD4680BC704780B483B000AF786096
:102B18007B689B6803F00203022B01D1012300E0CC
:102B2800002318460C37BD4680BC704780B483B07C
:102B380000AF78607B689B6823F0004323F017039D
:102B480043F004027B689A6000BF0C37BD4680BC26
:102B5800704780B483B000AF78607B689B6823F0CF
:102B6800004323F0170343F010027B689A6000BF0C
:102B78000C37BD4680BC704780B483B000AF786026
:102B88007B689B6803F00403042B01D1012300E058
:102B9800002318460C37BD4680BC704780B588B006
:102BA80000AF78600023FB770023BB6100237B61C3
:102BB8000023FB607B68002B01D101237EE17B6849
:102BC8001B69002B7B689B6D002B09D17868FEF789
:102BD80085F87B680022DA657B68002283F8542038
:102BE8007B681B681846FFF744FF0346002B15D186
:102BF8007B681B681846FFF718FF9E4B1B689B09EC
:102C08009D4AA2FB03239B0901335B00FB6002E0A2
:102C1800FB68013BFB60FB68002BF9D17B681B68F4
:102C28001846FFF726FF0346002B0DD17B689B6DE6
:102C380043F010027B689A657B68DB6D43F0010204
:102C48007B68DA650123FB777B681B681846FFF70A
:102C580093FF38617B689B6D03F01003002B40F0F5
:102C680024813B69002B40F020817B689B6D23F415
:102C7800817343F002027B689A657B681B6818467B
:102C8800FFF730FF0346002B40F0A7807B689A6867
:102C98007B681B7E9B031A437B685B7EDB031A43BE
:102CA8007B689B7E5B0313437A68126B002A02D011
:102CB8004FF4805200E000221A437B68DB681A4315
:102CC8007B681B69002B04DA7B681B6923F00043CF
:102CD80001E04FF400131A437B6893F82C305B0033
:102CE8001343BA691343BB617B6893F82030012B07
:102CF80014D17B689B7E002B04D1BB6943F48033DD
:102D0800BB610BE07B689B6D43F020027B689A6592
:102D18007B68DB6D43F001027B68DA657B685B6A80
:102D2800002B09D07B685B6A03F4E0727B689B6ABE
:102D38001343BA691343BB617B681B68DB6823F4E0
:102D4800FE3323F4FF737A681268B9690B43D360C2
:102D58007B685B6803F040427B68DB6C13437A69ED
:102D680013437B617B6893F83C30012B11D17B685E
:102D78005B6803F040427B681B6C1A437B685B6CA2
:102D88001A437B689B6C1A437B69134343F0010326
:102D98007B617B681B681A69384B13407A68126834
:102DA80079690B4313617B685B68B3F1404F14D0BA
:102DB8007B685B68B3F1804F0FD07B685B68B3F1C9
:102DC800004F0AD02E4B1B6823F470127B685B6897
:102DD80003F470132A4913430B607B6818687B68F7
:102DE8005B6B1A460021FFF776FD7B6818687B68E5
:102DF8009B6B1A462349FFF76EFD7B681B69002B06
:102E080008D17B681B689A6A7B681B6862F00F02AE
:102E18009A6217E07B681B69B3F5001F12D17B68C3
:102E28001B689B6A7B68DB69013B9B0003F01C0302
:102E38006FF00F0202FA03F17B681A6E7B681B6859
:102E48000A439A627B681B6800211846FFF761FDF8
:102E580002467B685B6B9A4216D17B680022DA6572
:102E68007B689B6D23F0030343F001027B689A653E
:102E780023E000BF00000020632D3E0502FCFF1F79
:102E88000827014004FFFF037B689B6D23F01203B2
:102E980043F010027B689A657B68DB6D43F00102A2
:102EA8007B68DA650123FB7707E07B689B6D43F05D
:102EB80010027B689A650123FB77FB7F1846203751
:102EC800BD4680BD80B584B000AF78607B68002BBC
:102ED80001D101237AE07B689B6D43F002027B6895
:102EE8009A65786800F0CEFA0346FB73FB7B002BEB
:102EF8000FD1786800F092FB0346FB73FB7B002B35
:102F080002D17B6801229A657B681B681846FFF727
:102F18009FFD7B681B685B687A68126823F4677397
:102F280023F0030353607B681B6840F29F321A60EA
:102F38007B681B68D9687B681A68264B0B40D3608E
:102F48007B681B685A697B681B6822F007025A6114
:102F58007B681B689B6A7B681B6800229A627B6897
:102F68001B681A6A7B681B6802F0F0221A627B6889
:102F78001B685A6A7B681B6802F0F0225A627B68F9
:102F88001B68DA6A7B681B6802F0F022DA627B68E9
:102F98001B681A697B681B6822F040421A610E4B55
:102FA8001B680D4A23F0FE7313607868FDF7AAFECC
:102FB8007B6800221A667B680022DA657B6800223B
:102FC8009A657B68002283F85420FB7B18461037EB
:102FD800BD4680BD00023E830827014080B584B00D
:102FE80000AF78607B681B681846FFF7C5FD03468D
:102FF800002B32D17B6893F85430012B01D1022386
:103008002EE07B68012283F85420786800F080FA6B
:103018000346FB73FB7B002B1AD17B689B6D23F463
:10302800706323F0010343F480727B689A657B68C0
:103038000022DA657B681B681C221A607B68002204
:1030480083F854207B681B681846FFF76FFD06E07D
:103058007B68002283F8542001E00223FB73FB7B8A
:1030680018461037BD4680BD80B584B000AF786083
:103078007B6893F85430012B01D1022322E07B684E
:10308800012283F85420786800F0FCF90346FB73AA
:10309800FB7B002B11D1786800F0C0FA0346FB7364
:1030A800FB7B002B09D17B689B6D23F4807323F095
:1030B800010343F001027B689A657B68002283F86C
:1030C8005420FB7B18461037BD4680BD80B584B0C0
:1030D80000AF786039607B685B69082B02D10823F0
:1030E800FB6010E07B681B68DB6803F00103002BC2
:1030F80007D07B689B6D43F020027B689A650123AB
:1031080077E00423FB60FEF7D9FDB86021E03B6857
:10311800B3F1FF3F1DD0FEF7D1FD0246BB68D31ABD
:103128003A689A4202D33B68002B12D17B681B682D
:103138001A68FB681340002B0BD17B689B6D43F02A
:1031480004027B689A657B68002283F85420032375
:103158004FE07B681B681A68FB681340002BD6D0C9
:103168007B689B6D43F400727B689A657B681B687B
:103178001846FFF7E6FB0346002B31D07B689B7EA1
:10318800002B2DD17B681B681B6803F00803082BF4
:1031980026D17B681B681846FFF7EEFC0346002B18
:1031A80012D17B681B685A687B681B6822F00C0286
:1031B8005A607B689B6D23F4807323F0010343F00E
:1031C80001027B689A650BE07B689B6D43F02002E7
:1031D8007B689A657B68DB6D43F001027B68DA6582
:1031E8007B681B7E002B03D17B681B680C221A604E
:1031F800002318461037BD4680BD80B483B000AFA9
:1032080078607B681B681B6C18460C37BD4680BC11
:103218007047000080B588B000AF7860396000233F
:10322800FB770023BB607B681B69B3F1004F7B68A9
:1032380093F85430012B01D1022310E17B6801225D
:1032480083F854207B681B681846FFF795FC0346F3
:10325800002B40F0F7803B685B68022B00F0B180E0
:103268007B681B69B3F1004F04D07B681B697E4AF9
:10327800934208D17B681A683B681B681946104658
:10328800FFF792FB41E07B681A6E3B685B6803F0CE
:103298001F030F2101FA03F3DB431A403B681B6845
:1032A800C3F31103002B05D13B681B689B0E03F089
:1032B8001F0311E03B681B683B613B6993FAA3F36A
:1032C800FB60FB687B617B69002B01D1202303E055
:1032D8007B69B3FA83F3DBB23968496801F01F01EF
:1032E8008B401A437B681A663B685B689B085A1CCC
:1032F8007B68DB699A4208D87B6818683B6859681C
:103308003B681B681A46FFF72EFB7B6818683B680A
:1033180019683B689B681A46FFF76BFB3B681B689C
:10332800002B80F297805148FFF7C8FAB8613B68D4
:103338001B684F4A934220D1BB6903F40003002B5A
:103348001BD1BB6943F4000319464848FFF7A4FAA8
:10335800484B1B689B09484AA2FB03239B095A1C3C
:1033680013465B0013449B00BB6002E0BB68013B53
:10337800BB60BB68002BF9D16CE03B681B683F4A17
:1033880093420CD1BB6903F08073002B07D1BB6952
:1033980043F0807319463548FFF77EFA5AE03B68D8
:1033A8001B68374A934255D1BB6903F48003002B4D
:1033B80050D1BB6943F4800319462C48FFF76CFAD7
:1033C80048E07B681B69B3F1004F04D07B681B6938
:1033D800254A934207D17B681A683B681B681946DF
:1033E8001046FFF7F3FA3B681B68002B32DA1F48D8
:1033F800FFF764FAB8613B681B681D4A934207D11E
:10340800BB6923F4000319461848FFF745FA21E081
:103418003B681B68194A934207D1BB6923F0807344
:1034280019461248FFF738FA14E03B681B68144A3B
:1034380093420FD1BB6923F4800319460B48FFF769
:103448002BFA07E07B689B6D43F020027B689A6546
:103458000123FB777B68002283F85420FB7F184602
:103468002037BD4680BD00BF04000080082701400A
:10347800001000B000000020632D3E05004000B899
:10348800002000B480B584B000AF78607B681B680A
:103498001846FFF771FB0346002B33D07B681B6887
:1034A8001846FFF731FB0346002B04D17B681B68E5
:1034B8001846FFF74EFBFEF701FCF8601BE0FEF72D
:1034C800FDFB0246FB68D31A022B14D97B681B68E4
:1034D8009B6803F00403002B0DD07B689B6D43F0C1
:1034E80010027B689A657B68DB6D43F001027B689C
:1034F800DA65012307E07B681B689B6803F0040317
:10350800002BDCD1002318461037BD4680BD0000D3
:1035180080B584B000AF78600023BB607B681B680F
:103528001846FFF7DFFA0346002B69D17B681B6852
:103538009A68364B1340002B0DD07B689B6D43F087
:1035480010027B689A657B68DB6D43F001027B683B
:10355800DA65012355E07B681B681846FFF79CFA7B
:103568002B48FFF7ABF9034603F40003002B0FD0F9
:10357800284B1B689B09284AA2FB03239B0901339C
:10358800BB6002E0BB68013BBB60BB68002BF9D1A4
:103598007B685B7E012B33D0FEF790FBF86028E058
:1035A8007B681B681846FFF79DFA0346002B04D179
:1035B8007B681B681846FFF76FFAFEF77FFB024629
:1035C800FB68D31A022B14D97B681B681B6803F0AD
:1035D8000103012B0DD07B689B6D43F010027B68C3
:1035E8009A657B68DB6D43F001027B68DA6501232D
:1035F80007E07B681B681B6803F00103012BCFD130
:10360800002318461037BD4680BD00BF1700008054
:103618000827014000000020632D3E0580B584B0D6
:1036280000AF78607B681B681846FFF76DFAF86092
:103638007B681B681846FFF755FA0346002B47D0EE
:10364800FB68002B44D17B681B689B6803F005036B
:10365800012B0CD17B681B681846FFF730FA7B6892
:103668001B6803221A60FEF729FBB86029E07B6813
:103678009B6D43F010027B689A657B68DB6D43F0B5
:1036880001027B68DA65012323E0FEF717FB024697
:10369800BB68D31A022B14D97B681B689B6803F09C
:1036A8000103002B0DD07B689B6D43F010027B68F3
:1036B8009A657B68DB6D43F001027B68DA6501235C
:1036C80007E07B681B689B6803F00103002BDCD1D3
:1036D800002318461037BD4680BD80B483B000AFC4
:1036E800786039607B68D3F8B43023F07F023B6898
:1036F8001A437B68C3F8B42000BF0C37BD4680BCB2
:10370800704780B483B000AF78607B68D3F8B4307A
:1037180003F07F0318460C37BD4680BC704780B461
:1037280083B000AF78607B689B6823F0004323F088
:10373800170343F001027B689A6000BF0C37BD464F
:1037480080BC704780B483B000AF78607B689B68AA
:1037580023F0004323F0170343F002027B689A60CA
:1037680000BF0C37BD4680BC704780B483B000AF43
:1037780078607B689B6803F00103012B01D101236A
:1037880000E0002318460C37BD4680BC704780B463
:1037980083B000AF78607B689B6823F0004323F018
:1037A800170343F000427B689A6000BF0C37BD46A0
:1037B80080BC704780B483B000AF78607B689B683A
:1037C80003F00043B3F1004F01D1012300E00023CF
:1037D80018460C37BD4680BC704780B588B000AF2E
:1037E80078600023BB600023BB617B6893F854308A
:1037F800012B01D10223B9E07B68012283F8542010
:103808007868FFF70BFF0346FB757B681B68184653
:10381800FFF7ABFF0346002B40F09D807B689B6D54
:1038280023F4817343F002027B689A657B681B6806
:10383800DA6848F2030313403B617B681B68DB6866
:103848007A68126823F4004323F00303D36000234B
:10385800FB612EE07B681B681846FFF798FF14E0B1
:10386800BB680133BB60BB68B3F52E3F0DD37B68E3
:103878009B6D23F0120343F010027B689A657B6806
:10388800002283F85420012370E07B681B681846E7
:10389800FFF790FF0346002BE2D17B681B681846B0
:1038A800FFF72FFF0246BB691344BB61FB69013375
:1038B800FB61FB69072BCDD9BA69FB69B2FBF3F34E
:1038C800BB617B681B681846FFF729FF7B681B688C
:1038D800B9691846FFF701FF7B681B681846FFF7B0
:1038E80031FFFEF7EBF9F8601CE0FEF7E7F9024656
:1038F800FB68D31A022B15D97B681B681846FFF79B
:1039080034FF0346002B0DD07B689B6D43F01002FB
:103918007B689A657B68DB6D43F001027B68DA653A
:10392800012323E07B681B681846FFF71EFF034648
:10393800002BDAD17B681B68D9687B681B683A69F9
:103948000A43DA607B689B6D23F0030343F00102AE
:103958007B689A6505E07B689B6D43F010027B6885
:103968009A657B68002283F85420FB7D184620372F
:10397800BD4680BD80B485B000AF78607B6803F039
:103988000703FB600C4BDB68BB60BA684FF6FF03AC
:103998001340BB60FB681A02BB68134343F0BF6364
:1039A80043F40033BB60044ABB68D36000BF1437DC
:1039B800BD4680BC704700BF00ED00E080B400AF9A
:1039C800044BDB681B0A03F007031846BD4680BC9E
:1039D800704700BF00ED00E080B483B000AF03463D
:1039E800FB7197F90730002B0BDBFB7903F01F0203
:1039F800064997F907305B09012000FA02F241F8FD
:103A0800232000BF0C37BD4680BC704700E100E0B2
:103A180080B483B000AF0346FB7197F90730002BE1
:103A280012DBFB7903F01F020A4997F907305B099B
:103A3800012000FA02F2203341F82320BFF34F8F10
:103A480000BFBFF36F8F00BF00BF0C37BD4680BCFF
:103A5800704700BF00E100E080B483B000AF0346C8
:103A68003960FB7197F90730002B0ADB3B68DAB243
:103A78000C4997F907301201D2B20B4483F800239E
:103A88000AE03B68DAB20849FB7903F00F03043B0C
:103A98001201D2B20B441A7600BF0C37BD4680BC67
:103AA800704700BF00E100E000ED00E080B489B09D
:103AB80000AFF860B9607A60FB6803F00703FB6148
:103AC800FB69C3F10703042B28BF0423BB61FB690F
:103AD8000433062B02D9FB69033B00E000237B611A
:103AE8004FF0FF32BB6902FA03F3DA43BB681A40AE
:103AF8007B699A404FF0FF317B6901FA03F3D943A0
:103B08007B680B40134318462437BD4680BC70477A
:103B180080B582B000AF78607B68013BB3F1807FED
:103B280001D301230FE00A4A7B68013B53600F2150
:103B38004FF0FF30FFF790FF054B00229A60044BCF
:103B480007221A60002318460837BD4680BD00BF0B
:103B580010E000E080B582B000AF78607868FFF7C9
:103B680009FF00BF0837BD4680BD80B586B000AFED
:103B78000346B9607A60FB73FFF720FF78617A68C3
:103B8800B9687869FFF792FF024697F90F30114636
:103B98001846FFF761FF00BF1837BD4680BD80B5E6
:103BA80082B000AF0346FB7197F907301846FFF75C
:103BB80013FF00BF0837BD4680BD80B582B000AF97
:103BC8000346FB7197F907301846FFF721FF00BF3E
:103BD8000837BD4680BD80B582B000AF7860786890
:103BE800FFF796FF034618460837BD4680BD00001C
:103BF80080B582B000AF78607B68002B01D10123CB
:103C08008EE07B681B681A46474B9A420FD87B6840
:103C18001B681A46454B1344454AA2FB03231B095C
:103C28009A007B685A647B68424A1A640EE07B6893
:103C38001B681A46404B13443D4AA2FB03231B0949
:103C48009A007B685A647B683C4A1A647B68022243
:103C580083F825207B681B681B687A68126823F440
:103C6800FF4323F0700313607B681B6819687B6847
:103C78009A687B68DB681A437B681B691A437B6810
:103C88005B691A437B689B691A437B68DB691A4343
:103C98007B681B6A1A437B681B680A431A6078684A
:103CA80000F024FB7B689B68B3F5804F02D17B68EA
:103CB80000225A607B685A687B689B6C02F07F021E
:103CC8001A607B68DB6C7A68126D5A607B685B6887
:103CD800002B10D07B685B68042B0CD8786800F048
:103CE8004DFB7B685B6D00221A607B689B6D7A6870
:103CF800D26D5A6008E07B6800225A657B68002212
:103D08009A657B680022DA657B680022DA637B6843
:103D1800012283F825207B68002283F824200023D1
:103D280018460837BD4680BD07040240F8FFFDBFAE
:103D3800CDCCCCCC00000240F8FBFDBF0004024013
:103D480080B582B000AF78607B68002B01D1012379
:103D58007BE07B681B681A687B681B6822F001029D
:103D68001A607B681B681A463A4B9A420FD87B68E0
:103D78001B681A46384B1344384AA2FB03231B0915
:103D88009A007B685A647B68354A1A640EE07B683F
:103D98001B681A46334B1344304AA2FB03231B0902
:103DA8009A007B685A647B682F4A1A647B681B6890
:103DB80000221A607B685B6C03F01C027B681B6C3A
:103DC800012101FA02F25A60786800F08FFA7B68E4
:103DD8009B6C00221A607B68DB6C7A68126D5A60F3
:103DE8007B685B68002B0FD07B685B68042B0BD863
:103DF800786800F0C3FA7B685B6D00221A607B6804
:103E08009B6D7A68D26D5A607B6800225A657B6820
:103E180000229A657B680022DA657B680022DA62F4
:103E28007B6800221A637B6800225A637B68002241
:103E38009A637B680022DA637B68002283F8252076
:103E48007B68002283F82420002318460837BD46E3
:103E580080BD00BF07040240F8FFFDBFCDCCCCCC2D
:103E680000000240F8FBFDBF0004024080B586B0A8
:103E780000AFF860B9607A603B600023FB75FB68AF
:103E880093F82430012B01D1022369E0FB68012259
:103E980083F82420FB6893F82530DBB2012B55D139
:103EA800FB68022283F82520FB680022DA63FB689E
:103EB8001B681A68FB681B6822F001021A603B68DD
:103EC8007A68B968F86800F0D3F9FB681B6B002BB7
:103ED80008D0FB681B681A68FB681B6842F00E0272
:103EE8001A600FE0FB681B681A68FB681B6822F001
:103EF80004021A60FB681B681A68FB681B6842F0BA
:103F08000A021A60FB689B6C1B6803F48033002B61
:103F180007D0FB689B6C1A68FB689B6C42F4807244
:103F28001A60FB685B6D002B07D0FB685B6D1A6835
:103F3800FB685B6D42F480721A60FB681B681A6844
:103F4800FB681B6842F001021A6008E0FB688022E7
:103F5800DA63FB68002283F824200123FB75FB7DCC
:103F680018461837BD4680BD80B483B000AF78606E
:103F78007B68002B01D101234FE07B6893F8253043
:103F8800DBB2022B08D07B680422DA637B6800224C
:103F980083F82420012340E07B681B681A687B684B
:103FA8001B6822F00E021A607B689B6C1A687B689B
:103FB8009B6C22F480721A607B681B681A687B68A5
:103FC8001B6822F001021A607B685B6C03F01C021C
:103FD8007B681B6C012101FA02F25A607B68DB6C7A
:103FE8007A68126D5A607B685B6D002B0CD07B6819
:103FF8005B6D1A687B685B6D22F480721A607B685F
:104008009B6D7A68D26D5A607B68012283F82520FF
:104018007B68002283F82420002318460C37BD460D
:1040280080BC704780B584B000AF78600023FB7314
:104038007B6893F82530DBB2022B05D07B6804221D
:10404800DA630123FB7347E07B681B681A687B68A7
:104058001B6822F00E021A607B681B681A687B686E
:104068001B6822F001021A607B689B6C1A687B68E7
:104078009B6C22F480721A607B685B6C03F01C02F4
:104088007B681B6C012101FA02F25A607B68DB6CC9
:104098007A68126D5A607B685B6D002B0CD07B6868
:1040A8005B6D1A687B685B6D22F480721A607B68AE
:1040B8009B6D7A68D26D5A607B68012283F825204F
:1040C8007B68002283F824207B689B6B002B03D03D
:1040D8007B689B6B78689847FB7B18461037BD4612
:1040E80080BD000080B584B000AF78607B681B6C31
:1040F8001B68FB607B681B681B68BB607B685B6C2C
:1041080003F01C0304229A40FB681340002B27D0BD
:10411800BB6803F00403002B22D07B681B681B6874
:1041280003F02003002B07D17B681B681A687B68A3
:104138001B6822F004021A607B685B6C03F01C02A7
:104148007B681B6C042101FA02F25A607B681B6BC6
:10415800002B00F081807B681B6B786898477BE0B8
:104168007B685B6C03F01C0302229A40FB681340D7
:10417800002B3DD0BB6803F00203002B38D07B68CE
:104188001B681B6803F02003002B0BD17B681B689E
:104198001A687B681B6822F00A021A607B68012291
:1041A80083F825207B681B681A462E4B9A4209D94A
:1041B8007B685B6C03F01C032B4A022101FA03F3B2
:1041C800536008E07B685B6C03F01C03274A0221FC
:1041D80001FA03F353607B68002283F824207B688C
:1041E800DB6A002B38D07B68DB6A7868984733E055
:1041F8007B685B6C03F01C0308229A40FB68134041
:10420800002B2AD0BB6803F00803002B25D07B685D
:104218001B681A687B681B6822F00E021A607B68AC
:104228005B6C03F01C027B681B6C012101FA02F233
:104238005A607B680122DA637B68012283F82520B3
:104248007B68002283F824207B685B6B002B04D0FA
:104258007B685B6B7868984700BF00BF1037BD4626
:1042680080BD00BF80000240000402400000024000
:1042780080B485B000AFF860B9607A603B60FB68D5
:10428800DB6CFA68126D5A60FB685B6D002B04D01A
:10429800FB689B6DFA68D26D5A60FB685B6C03F033
:1042A8001C02FB681B6C012101FA02F25A60FB68D0
:1042B8001B683A685A60FB689B68102B08D1FB683A
:1042C8001B687A689A60FB681B68BA68DA6007E05E
:1042D800FB681B68BA689A60FB681B687A68DA60D2
:1042E80000BF1437BD4680BC7047000080B485B05D
:1042F80000AF78607B681B681A461C4B9A4213D83B
:104308007B685B6C9B089B0003F1804303F50233D9
:104318007A6893647B681B68DBB2083B144AA2FB8B
:1043280003231B09FB6011E07B685B6C9B089A0008
:10433800104B13447A6893647B681B68DBB2083BB4
:104348000B4AA2FB03231B090733FB607B680A4A5D
:10435800DA64FB6803F01F0301229A407B681A6540
:1043680000BF1437BD4680BC704700BF0704024039
:10437800CDCCCCCC1C0802408008024080B485B06B
:1043880000AF78607B685B6803F07F03FB60FA68C6
:104398000A4B13449B001A467B685A657B68084A97
:1043A8009A65FB68013B03F0030301229A407B688E
:1043B800DA6500BF1437BD4680BC70473F820010E5
:1043C8004009024080B586B000AFF860B960C7E91F
:1043D80000231C4B1B78012B01D102232DE0194B24
:1043E80001221A70174B00225A604FF47A7000F0BD
:1043F80069F80346FB75FB7D002B1AD1FB68012B7E
:1044080005D1D7E90023B86800F0BEF804E03B689E
:104418001946B86800F0DEF84FF47A7000F052F8E8
:104428000346FB75084B5A69FB68DB430649134092
:104438004B61044B00221A70FB7D18461837BD46A5
:1044480080BD00BF140300200040005880B483B032
:1044580000AF0023FB710B4B5B69002B0BDA094B98
:10446800094A9A60074B094A9A60064B5B69002B18
:1044780001DA0123FB71FB7918460C37BD4680BC75
:10448800704700BF0040005823016745AB89EFCD56
:1044980080B483B000AF0023FB71094B5B69084A05
:1044A80043F000435361064B5B69002B01DB01239A
:1044B800FB71FB7918460C37BD4680BC704700BFBE
:1044C8000040005880B584B000AF7860FDF7F6FB77
:1044D800F86009E0FDF7F2FB0246FB68D31A7A6838
:1044E8009A4201D8032346E0254B1B6903F4803325
:1044F800B3F5803FEED0224B1B69BB60BB6803F06D
:104508000103002B02D01E4B01221A61BA684CF23B
:10451800FA331340BB60BB68B3F1804F07D3184B25
:104528009A69BB6803F04043154913438B61BB6824
:1045380023F04043002B04D0114ABB6823F04043CA
:104548001361BB68002B0ED00E4ABB685360012371
:1045580011E0FDF7B3FB0246FB68D31A7A689A426A
:1045680001D8032307E0064B1B6903F48023B3F546
:10457800802FEED0002318461037BD4680BD00BFFF
:10458800004000581403002080B485B000AFF860E4
:10459800C7E900230E4B5B690D4A43F001035361E1
:1045A800FB683A681A60BFF36F8F00BFD7E9000154
:1045B8004FF000024FF000030A000023F9680431AD
:1045C80013460B6000BF1437BD4680BC704700BF60
:1045D8000040005880B489B000AF7860396040234B
:1045E800FB777B68BB613B687B61184B5B69174A4B
:1045F80043F480235361EFF31083FB60FB683B6156
:1046080072B600BF7B691A68BB691A60BB6904335C
:10461800BB617B6904337B61FB7F013BFB77FB7FDD
:10462800002BEFD100BF094B1B6903F48033B3F5AE
:10463800803FF8D03B69BB60BB6883F3108800BF3C
:1046480000BF2437BD4680BC704700BF00400058FB
:1046580080B584B000AF78603960284B1B78012B97
:1046680001D1022346E0254B01221A70234B002278
:104678005A604FF47A70FFF725FF0346FB73FB7B04
:10468800002B33D17B681B68042B08D100F038F865
:104698004FF47A70FFF716FF0346FB7324E03B687C
:1046A8004FF0FF321A607B685B68BB6012E0B86845
:1046B80000F036F84FF47A70FFF704FF0346FB73F7
:1046C800FB7B002B03D03B68BA681A600AE0BB6822
:1046D8000133BB607B685A687B689B681344BA687F
:1046E8009A42E4D300F078F800F032F8034B002245
:1046F8001A70FB7B18461037BD4680BD1403002096
:1047080080B400AF054B5B69044A43F4803343F03F
:104718000403536100BFBD4680BC70470040005889
:1047280080B483B000AF7860084B5B6923F47E7275
:104738007B68DB001343054A43F4803343F00203EC
:10474800536100BF0C37BD4680BC7047004000581D
:1047580080B400AF1F4B1B6803F40073012B17D103
:104768001C4B1B681B4A23F400731360194B1B680E
:10477800184A43F400631360164B1B68154A23F468
:1047880000631360134B1B68124A43F400731360F1
:10479800104B1B6803F48063012B17D10D4B1B686A
:1047A8000C4A23F4806313600A4B1B68094A43F4DC
:1047B80080531360074B1B68064A23F48053136029
:1047C800044B1B68034A43F48063136000BFBD4673
:1047D80080BC70470040005880B400AF054B5B694F
:1047E800044A23F47E7323F00203536100BFBD46DD
:1047F80080BC70470040005880B487B000AF786034
:10480800396000237B6140E13B681A6801217B69BC
:1048180001FA03F31340FB60FB68002B00F03281C0
:104828003B685B6803F00303012B05D03B685B68BA
:1048380003F00303022B30D17B689B683B617B69E3
:104848005B00032202FA03F3DB433A6913403B613E
:104858003B68DA687B695B0002FA03F33A69134341
:104868003B617B683A699A607B685B683B610122BF
:104878007B6902FA03F3DB433A6913403B613B6807
:104888005B681B0903F001027B6902FA03F33A69CA
:1048980013433B617B683A695A603B685B6803F085
:1048A8000303032B17D07B68DB683B617B695B00E4
:1048B800032202FA03F3DB433A6913403B613B6886
:1048C8009A687B695B0002FA03F33A6913433B6118
:1048D8007B683A69DA603B685B6803F00303022B84
:1048E80023D17B69DA087B68083253F822303B61B0
:1048F8007B6903F007039B000F2202FA03F3DB43F3
:104908003A6913403B613B681A697B6903F0070306
:104918009B0002FA03F33A6913433B617B69DA08A7
:104928007B680832396943F822107B681B683B6151
:104938007B695B00032202FA03F3DB433A69134005
:104948003B613B685B6803F003027B695B0002FA2A
:1049580003F33A6913433B617B683A691A603B6821
:104968005B6803F44033002B00F08C804E4A7B696F
:104978009B08023352F823303B617B6903F0030341
:104988009B00072202FA03F3DB433A6913403B61B9
:104998007B68B3F1904F0DD07B68444A934207D0AF
:1049A8007B68434A934201D1022304E0072302E0D3
:1049B800012300E000237A6902F003029200934089
:1049C8003A6913433B6138497B699B0802333A696A
:1049D80041F82320374B1B683B61FB68DB433A698E
:1049E80013403B613B685B6803F48013002B03D0E2
:1049F8003A69FB6813433B612E4A3B6913602D4BB0
:104A08005B683B61FB68DB433A6913403B613B6889
:104A18005B6803F40013002B03D03A69FB68134367
:104A28003B61244A3B695360224BD3F880303B6199
:104A3800FB68DB433A6913403B613B685B6803F4FE
:104A48008033002B03D03A69FB6813433B61194A52
:104A58003B69C2F88030174BD3F884303B61FB6860
:104A6800DB433A6913403B613B685B6803F40033FE
:104A7800002B03D03A69FB6813433B610D4A3B693D
:104A8800C2F884307B6901337B613B681A687B69B3
:104A980022FA03F3002B7FF4B7AE00BF00BF1C3728
:104AA800BD4680BC704700BF0000014000040048BC
:104AB800000800480008005880B487B000AF78604C
:104AC800396000237B61AFE001227B6902FA03F3BE
:104AD8003A6813403B613B69002B00F0A280594AB9
:104AE8007B699B08023352F82330FB607B6903F033
:104AF80003039B00072202FA03F3FA681340FB60E2
:104B08007B68B3F1904F0DD07B684F4A934207D032
:104B18007B684E4A934201D1022304E0072302E056
:104B2800012300E000237A6902F003029200934017
:104B3800FA689A4236D1464BD3F880203B69DB436A
:104B480043491340C1F88030414BD3F884203B6976
:104B5800DB433F491340C1F884303D4B1A683B6939
:104B6800DB433B4913400B60394B5A683B69DB43D5
:104B7800374913404B607B6903F003039B0007220E
:104B880002FA03F3FB602F4A7B699B08023352F851
:104B98002310FB68DA432B487B699B080A400233E1
:104BA80040F823207B681A687B695B00032101FABF
:104BB80003F31A437B681A607B69DA087B6808325A
:104BC80053F822107B6903F007039B000F2202FAB7
:104BD80003F3DB437A69D20819407B68083243F84B
:104BE80022107B689A687B695B00032101FA03F352
:104BF800DB431A407B689A607B685A6801217B69AD
:104C080001FA03F3DB431A407B685A607B68DA6871
:104C18007B695B00032101FA03F3DB431A407B68DD
:104C2800DA607B6901337B613A687B6922FA03F3B6
:104C3800002B7FF449AF00BF00BF1C37BD4680BCC6
:104C4800704700BF00000140000400480008004809
:104C58000008005880B483B000AF78600B467B80B2
:104C680013467B707B78002B03D07A887B689A6127
:104C780002E07A887B689A6200BF0C37BD4680BC28
:104C88007047000080B582B000AF0346FB80084B38
:104C9800DA68FB881340002B06D0054AFB88D360EE
:104CA800FB88184600F006F800BF0837BD4680BDEF
:104CB8000008005880B483B000AF0346FB8000BFF3
:104CC8000C37BD4680BC704780B400AF044B1B68EE
:104CD800034A43F48073136000BFBD4680BC70472D
:104CE8000004005880B582B000AF78600B46FB70B6
:104CF8007B68002B0CD1134B5B6903F40073B3F58D
:104D0800007F0DD100F03CF80346002B08D015E0D9
:104D18000C4B5B6903F40073002B01D100F022F8FF
:104D2800094B1B69084A23F004031361FB78012B24
:104D380001D130BF02E040BF20BF20BF0837BD46C9
:104D480080BD00BF0004005800ED00E080B400AF53
:104D5800034B1B6803F4C0631846BD4680BC70470C
:104D68000004005880B400AF044B1B68034A43F4A6
:104D78008043136000BFBD4680BC704700040058E4
:104D880080B483B000AF164B1B68154A23F48043E8
:104D98001360144B1B68322202FB03F3124AA2FB76
:104DA80003239B0C7B6002E07B68013B7B600C4B20
:104DB8005B6903F40073B3F5007F02D17B68002BB5
:104DC800F2D1074B5B6903F40073B3F5007F01D19F
:104DD800032300E0002318460C37BD4680BC70470B
:104DE800000400580000002083DE1B4380B483B019
:104DF80000AF0346FB71104B1B6823F007030E4AF4
:104E080043F0020313600D4B1B690C4A43F0040383
:104E18001361FB79012B01D130BF02E040BF20BFF5
:104E280020BF064B1B69054A23F00403136100BF2A
:104E38000C37BD4680BC70470004005800ED00E008
:104E480080B400AF064B1B6803F48073B3F5807F12
:104E580001D1012300E000231846BD4680BC7047FD
:104E68000004005880B400AF4FF0B0431B684FF007
:104E7800B04243F40013136000BFBD4680BC7047C6
:104E880080B400AF4FF0B0431B684FF0B04223F43A
:104E98000013136000BFBD4680BC704780B400AFEC
:104EA8004FF0B0431B6803F48013B3F5801F01D1A2
:104EB800012300E000231846BD4680BC704780B43B
:104EC80000AF4FF0B0431B684FF0B04243F480335B
:104ED800136000BFBD4680BC704780B400AF4FF080
:104EE800B0431B684FF0B04223F48033136000BF17
:104EF800BD4680BC704780B400AF4FF0B0431B681C
:104F080003F40033B3F5003F01D1012300E000238F
:104F18001846BD4680BC704780B400AF4FF0B04320
:104F28001B684FF0B04243F48073136000BFBD4666
:104F380080BC704780B400AF4FF0B0431B684FF09F
:104F4800B04223F48073136000BFBD4680BC704735
:104F580080B400AF4FF0B0431B6803F48063B3F52F
:104F6800806F01D1012300E000231846BD4680BCB4
:104F7800704780B483B000AF78604FF0B0435B688F
:104F880023F0FE427B681B064FF0B04113434B6091
:104F980000BF0C37BD4680BC704780B400AF4FF0EF
:104FA800B043D3F8903003F00203022B01D1012360
:104FB80000E000231846BD4680BC704780B400AFAF
:104FC8004FF0B043D3F894304FF0B04243F00103B0
:104FD800C2F8943000BFBD4680BC704780B400AFB3
:104FE8004FF0B043D3F894304FF0B04223F00103B0
:104FF800C2F8943000BFBD4680BC704780B400AF93
:105008004FF0B043D3F8943003F00203022B01D1E0
:10501800012300E000231846BD4680BC704780B4D9
:1050280000AF4FF0B0431B684FF0B04243F00103AC
:10503800136000BFBD4680BC704780B400AF4FF01E
:10504800B0431B684FF0B04223F00103136000BF68
:10505800BD4680BC704780B400AF4FF0B0431B68BA
:1050680003F00203022B01D1012300E000231846BC
:10507800BD4680BC704780B400AF4FF0B0431B689A
:1050880003F00803082B01D1012300E00023184690
:10509800BD4680BC704780B400AF4FF0B0431B687A
:1050A80003F0F0031846BD4680BC704780B400AFDB
:1050B8004FF0B043D3F8943003F470631846BD46FC
:1050C80080BC704780B483B000AF78604FF0B043C5
:1050D8005B6823F47F427B681B024FF0B0411343A7
:1050E8004B6000BF0C37BD4680BC704780B483B0AE
:1050F80000AF78604FF0B0439B6823F003024FF095
:10510800B0417B6813438B6000BF0C37BD4680BC41
:10511800704780B400AF4FF0B0439B6803F00C03B6
:105128001846BD4680BC704780B483B000AF786035
:105138004FF0B0439B6823F0F0024FF0B0417B681A
:1051480013438B6000BF0C37BD4680BC704780B4EA
:1051580083B000AF78604FF0B043D3F8083123F044
:105168000F027B681B094FF0B0411343C1F80831A7
:1051780000BF0C37BD4680BC704780B483B000AF19
:1051880078604FF0B0439B6823F4E0624FF0B04181
:105198007B6813438B6000BF0C37BD4680BC7047EB
:1051A80080B483B000AF78604FF0B0439B6823F4BD
:1051B80060524FF0B0417B6813438B6000BF0C37DF
:1051C800BD4680BC704780B400AF4FF0B0439B68C9
:1051D80003F0F0031846BD4680BC704780B400AFAA
:1051E8004FF0B043D3F808311B0103F0F003184621
:1051F800BD4680BC704780B400AF4FF0B0439B6899
:1052080003F4E0631846BD4680BC704780B400AF25
:105218004FF0B0439B6803F460531846BD4680BC0A
:10522800704780B400AF4FF0B0431B684FF0B042F6
:1052380043F08073136000BFBD4680BC704780B4E4
:1052480000AF4FF0B0431B684FF0B04223F08073BB
:10525800136000BFBD4680BC704780B400AF4FF0FC
:10526800B0431B6803F00073B3F1007F01D1012341
:1052780000E000231846BD4680BC704780B400AFEC
:105288004FF0B043DB681B0A03F07F031846BD46A6
:1052980080BC704780B400AF4FF0B043DB6803F0C8
:1052A80060431846BD4680BC704780B400AF4FF0DD
:1052B800B043DB6803F070031846BD4680BC7047F6
:1052C80080B400AF4FF0B043DB6803F00303184627
:1052D800BD4680BC704780B400AF4FF0B0439B68B8
:1052E80003F48033B3F5803F01D1012300E00023AC
:1052F8001846BD4680BC704780B400AF4FF0B0433D
:10530800D3F8083103F48033B3F5803F01D101238A
:1053180000E000231846BD4680BC704780B400AF4B
:105328004FF0B0439B6803F40033B3F5003F01D15D
:10533800012300E000231846BD4680BC704780B4B6
:1053480000AF4FF0B0439B6803F48023B3F5802F80
:1053580001D1012300E000231846BD4680BC7047F8
:1053680080B588B000AF78607B68002B01D101233D
:105378006FE3FFF7CEFEF861FFF7A2FFB8617B6825
:105388001B6803F02003002B00F0C480FB69002B8E
:1053980005D0FB690C2B76D1BB69012B73D17B68D7
:1053A8001B6A002B01D1012353E37B689A6A4FF0F3
:1053B800B0431B6803F00803002B05D04FF0B0433F
:1053C8001B6803F0F00306E04FF0B043D3F89430C5
:1053D8001B0903F0F003934222D27B689B6A1846AC
:1053E80000F03CFD0346002B01D0012331E34FF0D0
:1053F800B0431B684FF0B04243F0080313604FF00E
:10540800B0431B6823F0F0027B689B6A4FF0B04101
:1054180013430B607B685B6A1846FFF753FE21E075
:105428004FF0B0431B684FF0B04243F008031360DD
:105438004FF0B0431B6823F0F0027B689B6A4FF083
:10544800B04113430B607B685B6A1846FFF73AFE6E
:105458007B689B6A184600F001FD0346002B01D0CB
:105468000123F6E200F0C2FC0346A74A1360A74BEB
:105478001B681846FDF778F90346FB74FB7C002B84
:1054880047D0FB7CE5E27B681B6A002B2CD0FFF73A
:10549800C6FDFCF713FC786108E0FCF70FFC024638
:1054A8007B69D31A022B01D90323D2E2FFF7D3FD7C
:1054B8000346002BF1D04FF0B0431B684FF0B042C9
:1054C80043F0080313604FF0B0431B6823F0F00269
:1054D8007B689B6A4FF0B04113430B607B685B6A43
:1054E8001846FFF7EFFD15E0FFF7A7FDFCF7E6FB11
:1054F800786108E0FCF7E2FB02467B69D31A022BCD
:1055080001D90323A5E2FFF7A6FD0346002BF1D13D
:1055180000E000BF7B681B6803F00103002B58D034
:10552800FB69082B05D0FB690C2B08D1BB69032B41
:1055380005D17B685B68002B4BD1012389E24FF0D2
:10554800B0431B6823F480127B689B684FF0B0411E
:1055580013430B607B685B68B3F5803F02D1FFF7AC
:10556800AEFC0DE07B685B68B3F5041F04D1FFF760
:1055780079FCFFF7A4FC03E0FFF7AFFCFFF780FC22
:105588007B685B68002B12D0FCF798FB786108E019
:10559800FCF794FB02467B69D31A642B01D90323D9
:1055A80057E2FFF7A8FC0346002BF1D011E0FCF707
:1055B80085FB786108E0FCF781FB02467B69D31A1A
:1055C800642B01D9032344E2FFF795FC0346002B23
:1055D800F1D17B681B6803F00203002B46D0FB69FE
:1055E800042B05D0FB690C2B0ED1BB69022B0BD108
:1055F8007B681B69002B01D101232AE27B685B6968
:105608001846FFF7B6FC31E07B681B69002B19D000
:10561800FFF782FCFCF752FB786108E0FCF74EFBD1
:1056280002467B69D31A022B01D9032311E2FFF743
:105638008FFC0346002BF1D07B685B691846FFF7A7
:1056480098FC13E0FFF776FCFCF738FB786108E07C
:10565800FCF734FB02467B69D31A022B01D90323DA
:10566800F7E1FFF775FC0346002BF1D17B681B6857
:1056780003F00803002B6ED07B689B69002B56D083
:105688004FF0B043D3F89430FB607B68DA69FB686D
:1056980003F010039A4231D0FB6803F00203002B99
:1056A80006D0FB6803F00103002B01D10123D0E1F0
:1056B800FB6803F00103002B13D0FFF78FFCFCF706
:1056C800FDFA786108E0FCF7F9FA02467B69D31A1B
:1056D800112B01D90323BCE1FFF790FC0346002BF3
:1056E800F1D14FF0B043D3F8943023F010027B6827
:1056F800DB694FF0B0411343C1F89430FFF75EFC0B
:10570800FCF7DCFA78610CE00000002004000020BF
:10571800FCF7D4FA02467B69D31A112B01D903236B
:1057280097E1FFF76BFC0346002BF1D013E0FFF77E
:1057380055FCFCF7C3FA786108E0FCF7BFFA0246AB
:105748007B69D31A112B01D9032382E1FFF756FC99
:105758000346002BF1D17B681B6803F00403002B80
:1057680000F0D880FFF76CFB0346002B13D1FFF73E
:10577800ABFAFCF7A3FA786108E0FCF79FFA024657
:105788007B69D31A022B01D9032362E1FFF758FB87
:105798000346002BF1D07B68DB68002B7BD07B684D
:1057A800DB68852B03D07B68DB68052B09D14FF0BC
:1057B800B043D3F890304FF0B04243F00403C2F83E
:1057C8009030FCF77BFA78614FF0B043D3F8903013
:1057D8004FF0B04243F00103C2F890300AE0FCF702
:1057E8006DFA02467B69D31A41F28832934201D995
:1057F80003232EE1FFF7D1FB0346002BEFD07B6894
:10580800DB68812B03D07B68DB68852B21D1FCF713
:1058180055FA78614FF0B043D3F890304FF0B0426A
:1058280043F08003C2F890300AE0FCF747FA0246DA
:105838007B69D31A41F28832934201D9032308E1E4
:105848004FF0B043D3F8903003F40063002BECD052
:1058580060E0FCF733FA78614FF0B043D3F890304A
:105868004FF0B04223F08003C2F890300AE0FCF712
:1058780025FA02467B69D31A41F28832934201D94C
:105888000323E6E04FF0B043D3F8903003F400630D
:10589800002BECD13EE0FCF711FA78614FF0B043F1
:1058A800D3F890304FF0B04223F08003C2F8903024
:1058B8000AE0FCF703FA02467B69D31A41F2883200
:1058C800934201D90323C4E04FF0B043D3F890309A
:1058D80003F40063002BECD1FCF7F0F978614FF08A
:1058E800B043D3F890304FF0B04223F00103C2F830
:1058F80090300AE0FCF7E2F902467B69D31A41F2DC
:105908008832934201D90323A3E0FFF746FB0346FD
:10591800002BEFD17B68DB6A002B00F09980FB69D4
:105928000C2B6CD07B68DB6A022B4BD1FFF787FC12
:10593800FCF7C4F9786108E0FCF7C0F902467B6916
:10594800D31A0A2B01D9032383E0FFF786FC034609
:10595800002BF1D14FF0B043DA68404B13407A681E
:10596800116B7A68526B11437A68926B1202114379
:105978007A68D26B11437A68126C11437A68526C58
:105988000A434FF0B0411343CB60FFF74AFC4FF096
:10599800B043DB684FF0B04243F08053D360FCF76C
:1059A8008DF9786108E0FCF789F902467B69D31A1A
:1059B8000A2B01D903234CE0FFF74FFC0346002BC9
:1059C800F1D045E0FFF73BFCFCF778F9786108E097
:1059D800FCF774F902467B69D31A0A2B01D9032311
:1059E80037E0FFF73AFC0346002BF1D14FF0B04304
:1059F800DA684FF0B0411A4B1340CB6028E07B685F
:105A0800DB6A012B01D1012323E04FF0B043DB68AF
:105A1800BB61BB6903F003027B681B6B9A4215D11B
:105A2800BB6903F070027B685B6B9A420ED1BB695D
:105A380003F4FE427B689B6B1B029A4206D1BB694A
:105A480003F060427B685B6C9A4201D0012300E05E
:105A5800002318462037BD4680BD00BF8C80C11189
:105A6800FCFFFEEE80B584B000AF786039607B68DB
:105A7800002B01D101230FE1894B1B6803F00703B9
:105A88003A689A421BD9864B1B6823F0070284495F
:105A98003B6813430B60FCF711F9F86008E0FCF76A
:105AA8000DF90246FB68D31A022B01D90323F3E050
:105AB8007B4B1B6803F007033A689A42EFD17B6877
:105AC8001B6803F00203002B16D07B689B681846FE
